:020000041000EA
:1000000000B5324B212058609868022188439860DF
:10001000D860186158612E4B002199600221596106
:100020000121F02299502B49196001219960352056
:1000300000F044F80222904214D00621196600F024
:1000400034F8196E01211966002018661A6600F04E
:100050002CF8196E196E196E052000F02FF8012189
:100060000842F9D1002199601B49196000215960AB
:100070001A491B48016001219960EB211966A021F2
:10008000196600F012F800219960164914480160C1
:100090000121996001BC002800D000471248134993
:1000A000086003C880F30888084703B5996A0420EC
:1000B0000142FBD001200142F8D103BD02B5186610
:1000C0001866FFF7F2FF186E186E02BD00000240BE
:1000D000000000180000070000035F00212200005C
:1000E000F4000018222000A00001001008ED00E03C
:1000F00000000000000000000000000074B24E7A12
:1001000000200420F7010010C3010010C5010010F9
:10011000C1010010C1010010C1010010C101001097
:10012000C1010010C1010010C1010010C701001081
:10013000C1010010C1010010C9010010CB01001065
:10014000CD010010CD010010CD010010CD01001037
:10015000CD010010CD010010CD010010CD01001027
:10016000CD010010CD010010CD010010CD01001017
:10017000CD010010CD010010CD010010CD01001007
:10018000CD010010CD010010CD010010CD010010F7
:10019000CD010010CD010010CD010010CD010010E7
:1001A000CD010010CD010010CD010010CD010010D7
:1001B000CD010010CD010010CD010010CD010010C7
:1001C00000BE00BE00BE00BE00BE00BEEFF3058054
:1001D000103800BEF2EB8871148E0010388E0010BB
:1001E0003402001090A31AE700201F49086006C8D7
:1001F00081F3088810471D48006800282FD10DA4FE
:100200000ECC002902D000F012F8F9E71849194A7B
:10021000002000E001C19142FCD1174988471749ED
:1002200088471749884700BEFDE701C901C29A42C5
:10023000FBD37047388E0010C000002050220020F1
:10024000C8AF00100000042000000420C8AF001058
:10025000001004200010042000000000704709482E
:1002600005F0F0FC0047000008ED00E0000000D0C1
:1002700050220020DC2F0020B15A0010050300108E
:10028000B15B00105756000006005250ABB36053EC
:10029000C08A001006005250861C0302D08A00104B
:1002A000060052505422A29DD88A001005005250D8
:1002B000DE65F468C8AF0010F8B5C04610B5064C4E
:1002C0002378002B07D1054B002B02D0044800E017
:1002D00000BF0123237010BD58250020000000003E
:1002E000288A0010044B10B5002B03D003490448A2
:1002F00000E000BF10BDC046000000005C250020EB
:10030000288A0010F0B5DE4657464E464546C022C4
:10031000E0B5FE4C0021A5440AAC2000120205F015
:10032000C5FF8022FF239200A3500432A350043261
:10033000A3500432A3500432A3500432A350ED3230
:10034000FF32A350F24A6360A3500432A350F14A33
:10035000A360A3500432A350EF4AE360A350ED32F0
:10036000FF32A350ED4A2361A3500432A350EC4A5C
:100370006361A3500432A350EA4A0A93A350ED32BA
:10038000FF32A350E84AE949A350E94A0226A350A4
:10039000E84A0327A3500432A350E74AE748A35092
:1003A000ED32FF32A350E64AE64DA350E64AA35091
:1003B000E64AA3500432A350E54AA350ED32FF327F
:1003C000A350E44AA350E44AA350E44AA3500432A1
:1003D000A350E34AA350ED32FF32A350E14AA350A9
:1003E000E14AA350E14AA3500432A350E04AA3508B
:1003F0000122625058316250F0316350DD49635040
:10040000DD496350DD496350DD496350DD49635088
:10041000ED31FF316350DC496350DC496350DC4906
:100420006350DC496350DC496350ED31FF31635068
:10043000DA496350DA496350DA496350DA492650A1
:100440006350DA4904306350D9492650625005217F
:1004500006206751D74D8C466251D74D6151083502
:100460006051D64D6651D64D05366751D54D615117
:100470001100D54D6051D54D6651D54D6651D54DC4
:100480006751D54D62510C356751D44D06376651D1
:10049000D34D3A006751D34D063F61510435675142
:1004A000D14D053E6751D14D6151D14D6651D14D70
:1004B0006651D14D6151D14D66510C356151803538
:1004C0006351CF4D6351CF4D6351CF4D6351CF4DEC
:1004D0006351CF4D6351ED35FF356351CD4D6351C0
:1004E000CD4D6351CD4D6351CD4D6351CD4D6351D4
:1004F000ED35FF356351CC4D6351CC4D6351CC4D3F
:100500006351CC4D6351CC4D6351CC4D6151CC4DB9
:1005100066510C356151CB4D6751CB4D2337665138
:10052000CA4D605130000C356151C94D13306651D0
:10053000C84DC94E6751C94D143F60515E25A75142
:10054000C74E0A37A55104362D3DA551C54E7D3104
:10055000A751C54E1835A151C44E7D39A551C44E81
:10056000253DA551C34E7235A551C34E423DA551FF
:100570002226B0464746C14E2735A75104366A3772
:10058000A751BF4E423FA751BE4E303FA751BE4E6E
:100590002C37A551BD4E0500A751BD4E1E3FA051A1
:1005A000BC4E6130A051BC4E2E38A05104363138BB
:1005B000A051BA4E5430A051B94E2738A0516046D0
:1005C000B84EA551B84E1E35A551B84E1B3DA7518A
:1005D000B74EA551B74E0B3DA551B74E0A3DA051A0
:1005E000B64E0338A551B64E0700A151B54E4B3754
:1005F000A2510436A151B44EA051B44EA151B44EF3
:10060000A1519036A351B34EA351B34EA351B34E53
:10061000A351B34EA351B34EA351ED36FF36A351B0
:10062000B14EA351B14EA351B14EA351B14EA351FE
:10063000B14EA351ED36FF36A351B04EA351B04E8B
:10064000A351B04EA351B04EA351B04EA351B04EE2
:10065000A151B04EA551B04E1035A051AF4EA05192
:10066000AF4EA051AF4E3E30A051AF4E2138A051F9
:100670000436A551AD4E8730A051AD4E0100A751B3
:100680002526AC4F4630E651AB4F1735E051AB4F06
:100690007738E051AA4F1430E6514646A94FE3514E
:1006A000A94FE051A94F6038E051A94F0200E35132
:1006B000A84F6830E051A84F0930E551A74F833566
:1006C000E351A74FE051A74F0830E6510437E351FB
:1006D000A54F7B36E651A54F773EE651A44FE35137
:1006E000A44FE051A44F7D38E0510800A34F853856
:1006F000E351A34FE151A34F0339E051A24FE3511E
:10070000A24FE551A24F8A3DE55143E1D43FFFFF9F
:10071000040400000C04000014040000040600009F
:100720000C0600001406000004080000B80E0000CB
:10073000080800000C080000140800009C140000C9
:10074000040A0000AC140000080A00000C0A0000B3
:10075000140A0000040C0000080C00000C0C00003F
:10076000140C0000040E0000080E00000C0E000027
:10077000140E000004100000081000000C1000000F
:1007800010100000141000000412000008120000F5
:100790000C120000101200001412000004140000DB
:1007A000081400000C1400001014000014140000C1
:1007B00090140000B4140000B8140000C414000029
:1007C000CC140000D8140000E4140000F014000061
:1007D000FC14000008150000141500002C15000082
:1007E000381500003C150000481500004C150000AD
:1007F000501500005C150000641500007415000021
:1008000004160000081600000C1600001016000068
:100810001416000004180000081800000C1800004E
:100820001018000014180000041A0000081A000034
:100830000C1A0000101A0000141A0000881A000098
:10084000941A0000A41A0000B01A0000B41A0000A4
:10085000CC1A0000D01A0000D81A0000D41A0000E8
:10086000DC1A0000E41A0000E81A0000EC1A00008C
:10087000F01A0000F41A0000F81A0000FC1A000038
:10088000041B0000081B00000C1B0000101B0000D4
:10089000141B0000181B00001C1B0000241B000080
:1008A000281B00002C1B0000301B0000341B000024
:1008B000381B0000441B0000501B0000541B0000AC
:1008C000581B00005C1B0000641B0000681B00003C
:1008D000701B0000041C0000081C00000C1C000021
:1008E000101C0000141C0000041E0000081E000064
:1008F0000C1E0000101E0000141E0000042000004A
:10090000082000000C20000010200000142000002F
:1009100088200000942000009C200000A8200000F7
:10092000B4200000B8200000BC200000C42000005B
:10093000C8200000CC200000D0200000D4200000FF
:10094000D8200000DC200000E0200000E4200000AF
:10095000E8200000EC200000F0200000F42000005F
:10096000F8200000FC200000042100000821000005
:100970000C210000102100001421000018210000AB
:100980001C2100002021000024210000282100005B
:100990002C210000FD4FE351FD4FE1514146FD4F39
:1009A000E551FD4F7935E5510437353DE551FB4FB4
:1009B000393DE151FA4F2139E551FA4F0E3DE551EC
:1009C000F94F0A3DE551F94F133DE551F84FE1511B
:1009D000F84FE151F84FE1510437E151F74FE5513C
:1009E000F74F0335E151F74FE151F74F7731E551BB
:1009F000F64F7135E551F64F413DE5511500F54F84
:100A0000CB35E251F44F8A46E551F44FC23DE151F6
:100A10000437E551F24F4935E351F24F1631E551B4
:100A2000F14F4A3DE551F14FC535E551F04F823D5B
:100A3000E551F04F503DE551EF4FC035E551EF4FD7
:100A40006F3DE551EE4F583DE551EE4FDB35E55139
:100A5000ED4F763DE551ED4F1135E651EC4F043A3F
:100A6000E351EC4FE151EC4F0631E2512A000437DB
:100A7000E351EA4F8B46E551E94F753DE051E94FAF
:100A8000DA30E351E84FE151E84F1331E551E84FD7
:100A90000635E051E74F6C38E051E74F6330E551E0
:100AA000E64F213DE0511000E54F7638E251E54F29
:100AB000E651E54F7636E351E44FE651E44F823E8E
:100AC000E651E44F9836E3510437E651E24F3200E5
:100AD000E051E24F7F3EE351E14FE1515146E14F9A
:100AE000E651E14F2436E151E04F7739E651E04FCE
:100AF000383EE651DF4F133EE651DF4F053EE651EB
:100B0000DE4F0236E151DE4FE151DE4FE151DE4F63
:100B1000E551DE4F0135E151DD4FE6510437E1513A
:100B20001700DC496D3F6550DB4906356550DB49F0
:100B300020356650DA496650DA491F366250DA4984
:100B40006750DA4927376650D9496350D949675009
:100B5000D949373F6750D949B7376750D849893F96
:100B6000675004316650D7497E376750D649894669
:100B700066218A46494657466750D44997376050A0
:100B8000D3496750D34989467C218A46494657460E
:100B90006750D149553F67505F46D0496350D049AF
:100BA0006750D049643F6750CF49B5376750CF4948
:100BB000633F6750CE4951376550CE490A3D675073
:100BC000CD49603F6750CD49655004318946BA210F
:100BD0008A46494657466750C9494A3F6750C949FE
:100BE00066376650C8490C356750C8490F007E21EA
:100BF000E151A027C6493A006550C649093D6350F6
:100C0000C5496750C549773F6750C5498337635029
:100C1000C4496750C449903F6750C4497C3763500A
:100C2000C3496750C3497E3F6750C3498946F32192
:100C30008A4649465746675004310F009121E151D9
:100C40001700BE496550BE499C356350BD4962508E
:100C5000BD497B3A6250BD496350BD496550BD49AD
:100C6000953D6550BC492A006750BC49373F6750E5
:100C7000BB490A3D6550BB495A3F67500D3F0C3197
:100C80006750B9491D3D6750B8496550B849023DA4
:100C90006550B84907356750B74912376750B749AB
:100CA0000B3F6550B649C7356750B6496550B649E0
:100CB0008A3D6550B54990350F003821E1516227D2
:100CC000B3496350B3496750B349323F6750B349A2
:100CD00028376550B249B73D6750B2496550B249AF
:100CE0008946E7218A46494657466750AF49823FC1
:100CF000675004313A3F6750AD49635083218A46BB
:100D00005746AC496750AC49523F6750AB49A13791
:100D10006750AB490F006C21E1514746A949675024
:100D2000A94954376750A949383F6750A849243F1B
:100D300067501700A749193F6250A7490200605049
:100D4000A64967504746A6496750A6490B3F6750DA
:100D5000A549023F67500431033F6750A349043F50
:100D60006750A3490B376750A2490F3F6750A2490C
:100D700005376750A14909376750A14908003A2152
:100D8000215010009F49853066503DE13021000020
:100D900034210000382100003C21000044210000E3
:100DA000482100004C210000502100006821000073
:100DB00074210000742600007C26000088260000B4
:100DC0008C26000090260000A8260000AC2600001B
:100DD000B0260000B4260000B8260000BC260000A3
:100DE000C4260000C8260000CC260000D026000043
:100DF000D4260000D8260000DC260000E0260000F3
:100E0000E4260000E8260000EC260000F0260000A2
:100E1000F4260000F8260000FC260000042700004D
:100E2000082700000C2700001027000014270000EE
:100E3000182700001C27000020270000242700009E
:100E4000282700002C27000030270000342700004E
:100E5000382700003C2700004427000048270000F6
:100E60004C2700005027000054270000582700009E
:100E70005C27000068270000742700007827000026
:100E80007C270000682C0000702C0000742C0000EF
:100E90007C2C0000842C0000942C0000982C000076
:100EA0009C2C0000A02C0000A42C0000A82C00000A
:100EB000AC2C0000B02C0000B42C0000B82C0000BA
:100EC000BC2C0000C42C0000C82C0000CC2C00005E
:100ED000D02C0000D42C0000D82C0000DC2C00000A
:100EE000E02C0000E42C0000E82C0000EC2C0000BA
:100EF000F02C0000F42C0000F82C0000FC2C00006A
:100F0000042D0000082D00000C2D0000102D000005
:100F1000142D0000182D00001C2D0000202D0000B5
:100F2000242D0000282D00002C2D0000302D000065
:100F3000342D0000382D00003C2D0000442D000011
:100F4000482D00004C2D0000502D0000542D0000B5
:100F5000582D00005C2D0000602D0000642D000065
:100F6000682D0000742D000068320000703200000F
:100F70007432000084320000883200008C3200009D
:100F80009032000094320000983200009C32000041
:100F9000A0320000A4320000A8320000AC320000F1
:100FA000B0320000B4320000B8320000BC320000A1
:100FB000C4320000C8320000CC320000D032000041
:100FC000D4320000D8320000DC320000E0320000F1
:100FD000E4320000E8320000EC320000F0320000A1
:100FE000F4320000F8320000FC320000043300004C
:100FF000083300000C3300001033000014330000ED
:10100000183300001C330000FD496750FD49833749
:101010006750FD493D3F6750FC499B376250FC4992
:101020006350FC496050FC4977386050FB4986307A
:10103000635004316050FA49963860505846F94977
:101040006750F949D53F6050F84967306750F84913
:101050003A006050F749663860504046F6496050A3
:10106000F6496350F6490800C02121508820F5490F
:101070006750F54902376050F44933386050604694
:10108000F34967500C316050F24902386050F24920
:1010900002386050F14901306050F14960506046BB
:1010A000F0496050F049A7306050F0497C386050FA
:1010B000EF4928306750EF496350EF496050EF49DE
:1010C00021386050EE490800C3212150ED49080045
:1010D00051212150EC482C392150EC480100F420DA
:1010E0006050EB49923860504046EA496050EA4906
:1010F000D5306050E949823860500431463860503C
:101100005046E7496050E749443860501000E649CE
:101110001E386250E54902006050E54902386050CF
:10112000E4490C306050E4490C386050E349283001
:1011300060504046E2496050E2490D386050E24953
:1011400087306050043137386050E049363860509D
:10115000DF497D306350DF496050DF494E306750D2
:10116000DE496050DE4962386050DE490730655024
:10117000DD496350DD496050DD497B386050DD4911
:101180008E306350DC496050DC4993386050DC4954
:1011900023306050DB494038665004311A3E6650B7
:1011A000D949043E6650D949093E60503000D849BB
:1011B00001306650D7496250D7496650D7495836F2
:1011C0006050D7496050D7491F3066503D3E0431CA
:1011D0006650D5496050D549D6306050D449AF38B3
:1011E0006050D44914386050D34997306050D34987
:1011F000020082386050D24926386550D149D43532
:101200006550D1499B3D6550D049283D6550D04936
:101210008946EB218A46494655466550CD49893D68
:101220006550CD49323D6550CC4913356550CC49A8
:10123000263D605004316550CA4920386050CA4983
:1012400002386050C9490B3D6050C9491E30655095
:10125000C84998356550C849433D6550C749473D21
:101260006550C74993356350C64965504546C649E0
:101270006550C649D7356550C5496A3D6550C54971
:101280006750C54990376350C4496750C449370017
:101290006650C4490A3F6250C349CA3A8946792117
:1012A0008A464946564666506D3E350004316050C8
:1012B000BE491D386650BE49053E6250BD49625068
:1012C000BD496650BD496050BD4901306050BD49BF
:1012D00018306050BC49113066502E00BB49C636EC
:1012E0006550BB49213566500431BF3E6650B9494F
:1012F000C9366750B849E0376650B849023E605079
:10130000B74917386050B7496650B7498B3E6650A9
:10131000B64932006550B649173E6750B549953F0A
:101320006750B54909356650B449283E6550B449FF
:10133000293D6550B3490B3D6650B3490F3E665099
:10134000B249CB366550B24910376650B1492F3596
:101350006750B149643F6750B0493E006350B0499F
:101360008D376750AF498946FC218A464946574622
:101370006750AD49763F6750AC491A376350AC4966
:101380006750370004316650AA4935366650AA497D
:10139000303E6550A94909376650A9491135675053
:1013A000A8496750A8496750A84939376250A849E9
:1013B0006250A84962504C218B465E46A649665051
:1013C000A6496650A6496650A64902366750A64906
:1013D0006750A6496750A6496650A6496650A64977
:1013E0006650A6490B3E6650A5496550A54934355F
:1013F0006650A54913366650A449453E665047E1FC
:101400002033000024330000283300002C33000078
:101410003033000034330000383300003C33000028
:1014200044330000483300004C33000050330000C8
:1014300054330000583300005C3300006033000078
:1014400064330000683300006C3300007033000028
:1014500074330000643800006C38000070380000FD
:101460007438000078380000883800008C3800009C
:101470009038000094380000983800009C38000034
:10148000A0380000A4380000A8380000AC380000E4
:10149000B0380000B4380000B8380000BC38000094
:1014A000C4380000C8380000CC380000D038000034
:1014B000D4380000D83800002C3900003039000042
:1014C00034390000383900003C390000443900004C
:1014D000483900004C3900005039000054390000F0
:1014E000583900005C3900006039000064390000A0
:1014F000683900006C390000703900007439000050
:10150000783900007C3900008C39000090390000E7
:1015100094390000983900009C390000643E0000B6
:101520006C3E00007C3E0000843E0000883E0000CF
:101530008C3E0000903E0000943E0000983E00006B
:101540009C3E0000A03E0000A43E0000A83E00001B
:10155000AC3E0000B03E0000B43E0000B83E0000CB
:10156000BC3E0000CC3E0000D83E0000DC3E000047
:10157000443F0000483F00004C3F0000503F000047
:10158000543F0000583F00005C3F0000603F0000F7
:10159000643F0000683F00006C3F0000703F0000A7
:1015A000743F0000783F00007C3F00008C3F00004B
:1015B000903F0000943F0000983F00009C3F0000D7
:1015C000A43F000070440000744400007844000010
:1015D0007C44000084440000884400008C440000E7
:1015E0009044000094440000984400009C44000093
:1015F000A0440000A4440000A8440000AC44000043
:10160000B0440000B4440000244500002C45000014
:1016100054450000584500005C450000604500004E
:10162000644500006C4500007045000078450000EE
:101630007C45000084450000884500008C45000082
:101640001C4A0000204A0000244A0000284A0000EA
:101650002C4A0000304A0000344A0000384A00009A
:101660003C4A0000404A0000444A0000484A00004A
:101670004C4A0000504A0000544A0000584A0000FA
:101680005C4A0000604A0000704A0000744A000092
:10169000FD4906366650FD493200E4366650043195
:1016A0006550FB4989466F218A4649465646665031
:1016B000F84957366650F8492836894650218A46F7
:1016C000494655466550F5491D3D6550F449153D5F
:1016D0006650F449AF3E6650F34905366550F3490C
:1016E00066501600F249073E6250F2496650F249D0
:1016F00044366650F14901366650F1493200665071
:10170000F049443E6650F049023E6650EF490336C8
:101710006650EF4901366650EE49013E6650EE498B
:1017200041366050ED496650ED4908005121215085
:10173000EC49300066505E46EB496750EB49675014
:10174000EB496750EB491D3F6650EB496650EB494A
:101750006650083E04316650E9496650E9496650D2
:10176000412189464E46E8496650E8496650E849B5
:101770006650E849403E6750E7496750E74967507F
:10178000E7496650E74933366650E749053E6650FB
:10179000E649033666501600E549033E6250E549C6
:1017A00066500600E449153E6050E4490B38665027
:1017B000E34905366650E34907006050E249773057
:1017C000894690218A46494656466650DF49203E62
:1017D0006650DF49143E6650DE499F366650DE494A
:1017E000A03E6050DD4932006650DD497A388946B6
:1017F000ED218A46494656466650DA493D3E6650D6
:10180000D949523E6650D9495F366350D84966502F
:10181000043160503800D749353E6650D6492538E6
:101820006750D6492E3F6750D549543E6050D54940
:1018300009306050D44917376650D449013E67508B
:10184000D3496650D349013E6650392189464F46F7
:10185000D1490D3E6750D1496750D1496750D149B0
:10186000133F6650D0496650D0496650D0491B3668
:101870006650D0496650D0496650D04946366350CC
:10188000CF496350CF496350CF496350CF4963502C
:10189000CF496350CF496350CF496350CF4963501C
:1018A000CF496350CF496350CF496350CF4963500C
:1018B000CF496350CF496350CF496650CF4917365F
:1018C0006650CF49023E6650CE49894660218A461D
:1018D000494656466650CC499836665004312A3EF1
:1018E0006650CA4905366650C94926366650C94908
:1018F000283E6350C8496350C8496650C849BB3E3A
:101900006750C8491C3F6650C74995366650C7495D
:1019100016366650C64904366650C649B93E63500D
:10192000C5496350C5496350C5496750C5496650AC
:10193000C54966501600C5499B366250C44962507D
:10194000C4496250C4496350C4496350C449635098
:10195000C4496350C4496350C4496350C449635087
:10196000C4496350C449635004316650C34966504A
:10197000C3496650C349203E6350C3496350C349BD
:101980006350C3496650C3496650C3496650A1219C
:1019900089464E46C1496650C1496650C1496650A4
:1019A000C1494B366350C1496350C1496350C14975
:1019B0006350C1496350C1496350C1496650C14930
:1019C0000E366650C0496650C04901366650C0495F
:1019D000063E6650BF496350BF496650BF4908364E
:1019E0006350BF4932006350BE496650BE49213E34
:1019F000665004318946A9218A46494657466750B0
:101A0000BA49533E6650BA491D366050B9496D30E7
:101A10006050B9495E3F6650B8490D3666505E4623
:101A2000B7496350B7496350B7496350B7496750E6
:101A3000B7496750B749473F6650B7495F3663506B
:101A4000B6496350B6496350B6496650B6496650C8
:101A5000B6496650B649983E6750B649300067505F
:101A6000B5490B386750B5490E376750B4496750D0
:101A7000B4496750B4496650B4496650B449665099
:101A8000B4497736675067E1784A00007C4A000025
:101A9000844A0000884A00008C4A0000904A0000F6
:101AA000944A0000984A00009C4A0000A04A0000A6
:101AB000A44A0000A84A0000B84A0000BC4A00003E
:101AC000C04A0000C44A0000C84A0000CC4A0000D6
:101AD000D04A0000D44A0000D84A0000DC4A000086
:101AE000E04A0000E44A0000E84A0000EC4A000036
:101AF000F04A0000F44A0000F84A0000FC4A0000E6
:101B0000044B0000084B00000C4B0000104B000081
:101B1000144B0000184B00001C4B0000204B000031
:101B2000284B0000304B0000344B0000384B0000C5
:101B30003C4B0000404B0000444B0000484B000071
:101B40004C4B0000504B0000544B0000584B000021
:101B50005C4B0000604B0000644B0000684B0000D1
:101B60006C4B0000704B0000744B0000784B000081
:101B70007C4B0000844B0000884B00008C4B000025
:101B8000904B0000944B0000984B00009C4B0000D1
:101B9000A04B0000A44B0000CC4B0000D04B000039
:101BA000D44B0000D84B0000DC4B0000E04B0000A1
:101BB0001C5000002050000024500000285000005D
:101BC0002C5000003050000034500000385000000D
:101BD0003C500000405000004450000048500000BD
:101BE0004C5000005050000054500000585000006D
:101BF0005C5000006050000064500000685000001D
:101C00006C500000705000007C50000084500000B8
:101C1000885000008C50000090500000945000004C
:101C2000985000009C500000AC500000B0500000E4
:101C3000B4500000B8500000BC500000C05000007C
:101C4000C4500000C8500000CC500000D05000002C
:101C5000D4500000D8500000DC500000E0500000DC
:101C6000E4500000E8500000EC500000F05000008C
:101C7000F4500000F8500000FC5000000451000037
:101C8000085100000C5100001051000014510000D8
:101C9000185100001C51000020510000305100007C
:101CA00034510000385100003C5100004051000008
:101CB00044510000485100004C51000050510000B8
:101CC00054510000585100005C5100006051000068
:101CD00064510000685100006C5100007051000018
:101CE00074510000785100007C51000084510000C4
:101CF000885100009051000094510000985100005C
:101D00009C510000A0510000A4510000A851000007
:101D1000AC510000B0510000CC510000D051000087
:101D2000D4510000D8510000DC510000E051000007
:101D30001C560000205600002456000028560000C3
:101D40002C56000030560000345600003856000073
:101D50003C56000040560000FD496750FD49675061
:101D6000FD49083F6750FD496750FD496750FD49EF
:101D700066508D2189464F46FB496750FB496750A5
:101D8000FB496250FB496350FB4963507A218A4604
:101D90005746FA496750FA49713F6050F9493E0089
:101DA0006750F949C5376750033004316050F7492F
:101DB00002306050F64930376350F6499F30675023
:101DC000F549463F6350F5496750F5495A3F605021
:101DD000F4496050F4493F386050F4493A3867504C
:101DE000F349023F6750F349283F6350F24963507B
:101DF000F2496350F2496750F2496750F2495F4631
:101E00006050F24923386050F14902006050F149B6
:101E10006050F14911306050F0496050F049605015
:101E2000F049C4306650F0496650F0496650F049B8
:101E300013366650EF496650EF49665004316050E2
:101E4000EE49113E6050EE496050EE49CA38635089
:101E5000ED496350ED496350ED496750ED496750D6
:101E6000ED496750ED493A3F6650ED496650ED49FE
:101E70006650ED4904366750EC496750EC496750AD
:101E8000EC4966501600EC490D366250EB4967503C
:101E9000EB4908376750EB496050EB491730665003
:101EA000DD218B465F46E9490D366750E849583FCA
:101EB0006750E84916376050E74973306350E74987
:101EC0006750E749063F6650E649D3366650E64913
:101ED000403E67506E3F04316750E4496650E44924
:101EE0006E3E66506646E3496650E3499D3666504D
:101EF000E2496050E2490F386050E249683063506F
:101F0000E1496350E1496350E1496350E14963505D
:101F1000E1496350E1496550E1496550E149655047
:101F20003500E14912356050E0496050E0496050A9
:101F3000E04938386650E0496650E0496650E0496B
:101F40007A3E6650DF496650DF496650DF4965508A
:101F5000DF496550DF4965505D46DF496550DF491F
:101F60006550DF496550DF496550DF496550DF49FD
:101F70006550DF49033D6050DE492A006050DE496C
:101F80006050DE4918386550DD4901356550DD493E
:101F90006550DD491A3D6050DC4911306550DC491F
:101FA0004F3D6050DB49B9386550DB4962356050C0
:101FB000DA4905306050DA493D306550D9490F3D66
:101FC0006550D949763D6550D8499B356050D84910
:101FD000604665505546D7496350D7496350D74945
:101FE0006350D7496350D7496350D7496550D749A3
:101FF000053D6550D64965501500D649863D60506F
:10200000D5496050D5496050D54994306250D54982
:102010006250D5496250D549D93A6550D449655086
:10202000D4496550D44923356350D4496350D449C9
:102030006350D4496050D4496050D4496050D44969
:1020400007386050D3496050D3496050D3498F3826
:102050006350D3496350D3496350D3496350D34944
:102060006350D3496350D3496250D3496550D34933
:102070006D3D6050D24927306550D2498946E221F2
:102080008A4649465546655004316750CE49323D2F
:102090006050CE4994376550CD4935356350CD49B0
:1020A0003F306750CC498946BC218A46494657464D
:1020B0006750CA493D376550C94912356550C9490D
:1020C000073D6750C849C33F6250C8496250C8497C
:1020D0006250C8496750C8496750C8496750C849E5
:1020E0006550C8496550C8496550C849383D655074
:1020F000C7496550C7496550C7491B356550C74931
:102100006550C7496550C7496350C7496350C749BF
:102110006350C7496050C7496050C7490138605093
:10212000C6490A006A21A150C54A4F31A050C54A8C
:102130000330A050C44A4530A050C44A2838A050AB
:10214000C34A1238A050C34A8730A05084E1C04629
:1021500044560000485600004C56000050560000FF
:1021600054560000585600005C56000060560000AF
:1021700064560000685600006C560000705600005F
:1021800074560000785600007C560000845600000B
:10219000885600008C5600009056000094560000AF
:1021A000985600009C560000A0560000A45600005F
:1021B000A8560000AC560000B0560000B45600000F
:1021C000B8560000BC560000C0560000D0560000B3
:1021D000D4560000D8560000DC560000E05600003F
:1021E000E4560000E8560000EC560000F0560000EF
:1021F000F4560000F8560000FC560000045700009A
:10220000085700000C57000010570000145700003A
:10221000185700001C5700002057000030570000DE
:1022200034570000385700003C570000405700006A
:1022300044570000485700004C570000505700001A
:1022400054570000585700005C57000060570000CA
:1022500064570000685700006C570000705700007A
:1022600074570000785700007C5700008457000026
:10227000885700008C5700009057000094570000CA
:10228000985700009C570000A0570000A45700007A
:10229000A8570000AC570000B0570000B45700002A
:1022A000B8570000BC570000CC570000D0570000C2
:1022B000D4570000D8570000DC570000E05700005A
:1022C0001C5C0000205C0000245C0000285C000016
:1022D0002C5C0000305C0000345C0000385C0000C6
:1022E0003C5C0000405C0000445C0000485C000076
:1022F0004C5C0000505C0000545C0000585C000026
:102300005C5C0000605C0000645C0000685C0000D5
:102310006C5C0000705C0000745C0000785C000085
:102320007C5C0000885C00008C5C0000905C00001D
:10233000945C0000985C00009C5C0000A05C0000C5
:10234000A45C0000A85C0000AC5C0000B05C000075
:10235000B45C0000E85C0000EC5C0000F05C000095
:10236000F45C0000F85C0000FC5C00001C620000F3
:102370002062000024620000286200002C6200003D
:102380003062000034620000386200003C620000ED
:102390004062000044620000486200004C6200009D
:1023A0005062000054620000586200005C6200004D
:1023B00060620000686200007062000074620000E9
:1023C000786200007C620000846200008862000085
:1023D00094620000986200009C620000A06200000D
:1023E000A4620000A8620000C4620000C86200008D
:1023F000CC620000DC620000E0620000E4620000E9
:10240000E8620000EC620000F0620000F46200008C
:10241000F8620000FC6200003063000034630000DA
:10242000386300003C630000406300004463000028
:10243000486300004C6300005063000054630000D8
:10244000586300005C630000606300006463000088
:10245000686300006C630000FD4A7838A150FD4AB3
:10246000B839A050FC4A7430A050FC4A4F38A050F4
:1024700004325438A050FA4A4430A050F94A573830
:10248000A050F94A4C30A150F84ACC31A550F84A36
:10249000023DA150F74AA550F74A453DA550F74ADD
:1024A0000635A050F64AA550F64A5C35A550F64AC6
:1024B0002900A550F54A9D39A550F54A0A3DA55079
:1024C000F44AA550F44AA550F44A043DA550F44AF4
:1024D000A550F44AA550F44A7C3DA050F34AA050C0
:1024E000F34AA050F34A5A38A550F34AA550F34A8C
:1024F000A550F34A0935A350F24AA350F24AA3501B
:10250000F24AA050F24AA050F24AA050F24A0C38C7
:10251000A350F24AA350F24AA350F24AA750F24AFB
:102520001937A150F14A6631A750F14A203FA05017
:10253000F04AAD30A0500432A650EF4A1738A750E9
:10254000EE4A8937A150EE4A1531A350ED4A0E36B6
:10255000A050ED4A3E30A750EC4A4037A150EC4A1B
:102560005A39A050EB4A2838A750EB4AAF3FA75042
:10257000EA4A0137A750EA4AA750EA4A0D37A35062
:10258000E94AA350E94AA350E94AA350E94AA350B3
:10259000E94AA350E94AA750E94AA750E94AA75097
:1025A00003370432A750E84AA750E84AA750E84A40
:1025B0000F3FA550E74AA550E74AA550E74A8D3599
:1025C000A750E74AA750E74AA750E74AA050E74A72
:1025D000A050E74AA050E74A2430A550E64A673D9C
:1025E000A050E64AA050E64AC538A050E54A03305C
:1025F000A650E54AA050E54A0538A050E44A01300B
:10260000A650E44A6536A050E34A6630A050E34A3B
:102610009138A150E24A7D31A750E24AB037A1502B
:10262000E14A4239A150E14A91466E2292464A4619
:102630005146A150DE4A2839A750DE4AA65004323E
:10264000A150DD4A703EA550DC4A3835A650DC4A20
:10265000AC36A550DB4AA331A650DB4A153EA1504B
:10266000DA4A453DA650DA4A0236A650D94AA65063
:10267000D94ABD3EA050D94AA050D94AA050D94A03
:102680004030A350D84AA350D84AA350D84AA350A8
:10269000D84AA350D84AA350D84AA550D84AA550E2
:1026A000D84AA550D84A7C3DA050D84AA050D84A14
:1026B000A050D84A8E30A050D74AA050D74AA05038
:1026C000D74A2638A550D74AA550D74AA5509E22AA
:1026D00092465146D54A0D35A150D54AA150D54A0A
:1026E000A150D54A2931A050D44AA438A150D44A87
:1026F0000239A1504146D34AA150D34A8C31A65049
:10270000D24AA050D24AC430A0500432A550D14A77
:102710001235A550D04ACC38A150D04A273DA650FA
:10272000CF4AEF36A050CF4ABE30A6505646CE4ACA
:10273000A650CE4A093EA650CD4A1D36A650CD4AD7
:102740001936A650CC4AA050CC4AC138A550CC4A24
:102750006835A050CB4A6730A550CB4A7B35A05096
:10276000CA4AA050CA4A7B30A050CA4A1338A55062
:10277000C94A013DA550C94A1135A050C84AA050C8
:10278000C84AA050E62291464846C74AA050C74AC8
:10279000A050C74AA0500432A550C64AA550C64A08
:1027A000A550C64A0235A550C54AA550C54AA550F0
:1027B000C54A4B3DA550C54AA550C54AA550C54A76
:1027C000AA3DA550802291464846C34AD935A0501B
:1027D000C24A0138A0504846C14AA0505846C14A92
:1027E000A550C14A1335A050C04AA050C04A67380E
:1027F000A550C04A0235A550F12291464D46BE4A29
:10280000A550BE4A093DA5504D46BD4AA550BD4AFA
:10281000023DA550BC4A0B35A5504D46BB4AA750BA
:10282000BB4AE93FA550BB4A073DA550BA4A0E3501
:10283000A5503500B94A303DA350B94AA350B94A12
:10284000A6500432A5500500B74AC43EA0506DE121
:102850007063000074630000786300007C63000014
:1028600084630000886300008C63000090630000B4
:1028700094630000986300009C630000A063000064
:10288000A4630000B4630000B8630000BC630000F0
:10289000C0630000C4630000C8630000CC63000094
:1028A000D0630000D4630000D8630000DC63000044
:1028B000E06300001C68000020680000246800003D
:1028C000286800002C680000306800004C68000098
:1028D0005068000054680000586800005C68000000
:1028E0006068000064680000686800006C680000B0
:1028F000706800007C680000846800008868000040
:1029000094680000986800009C680000A0680000BF
:10291000A4680000A8680000D0680000D468000027
:10292000D8680000DC680000E0680000E46800008F
:10293000E8680000EC680000F0680000F46800003F
:10294000F8680000FC6800000469000008690000E5
:102950000C6900001069000014690000186900008B
:102960001C69000020690000306900003469000023
:10297000386900003C6900004069000044690000BB
:10298000486900004C69000050690000546900006B
:10299000586900005C69000060690000646900001B
:1029A000686900006C6900007069000074690000CB
:1029B000786900007C690000846900008869000073
:1029C0009069000094690000986900009C6900000B
:1029D000A0690000A4690000B4690000B8690000A3
:1029E000BC690000C0690000C4690000C86900003B
:1029F000CC690000D0690000D4690000D8690000EB
:102A0000DC690000E06900001C6E0000206E000020
:102A1000246E0000286E00002C6E0000306E000056
:102A2000346E0000386E00003C6E0000586E0000EE
:102A30005C6E0000606E0000646E0000686E000056
:102A40006C6E0000706E0000746E0000786E000006
:102A50007C6E0000846E0000886E00008C6E0000AA
:102A6000906E0000946E0000986E00009C6E000056
:102A7000A06E0000A46E0000A86E0000C06E0000F2
:102A8000C46E0000D06E0000D46E0000D86E00004E
:102A9000DC6E0000E06E0000E46E0000E86E0000F6
:102AA000EC6E0000F06E0000F46E0000F86E0000A6
:102AB000FC6E0000046F0000086F00000C6F000047
:102AC000106F0000146F0000186F00001C6F0000F2
:102AD000206F0000246F0000306F0000346F000092
:102AE000386F00003C6F0000406F0000446F000032
:102AF000486F00004C6F0000506F0000546F0000E2
:102B0000586F00005C6F0000606F0000646F000091
:102B1000686F00006C6F0000706F0000746F000041
:102B2000786F00007C6F0000846F0000FE4A55380B
:102B3000A750FE4A8E37A650FD4A8136A650FD4A60
:102B40007D3EA750FC4A0E3FA150FC4A0D31A750D4
:102B5000FB4A0137A750FB4AA750FB4A4437A05015
:102B6000FA4AA050FA4AA050FA4A2800A750FA4A56
:102B70005238A750F94AA750F94ACE3FA550F94A12
:102B8000A550F94AA550F94A693DA550F84A1335B0
:102B9000A650F84AA650F84A1136A550F74A023D09
:102BA000A750F74A0837A750F64A1537A150043204
:102BB000A650F54A0B36A750F44AA9379146BE22D3
:102BC00092464A465146A1504146F14AA050F14A28
:102BD0000138A650F04A023EA750F04A193FA550CE
:102BE000EF4AA650EF4A123EA750EF4A0700A05006
:102BF000EE4A2038A150EE4A2139A650ED4A043E53
:102C0000A650ED4A013EA650EC4A1C36A150EC4AB3
:102C1000A050EC4AA150EC4AA050EC4AA150EC4A1A
:102C2000A050EC4A0530A150EB4AA150EB4A71315B
:102C3000A650EB4A183EA650EA4AE936A050EA4AA6
:102C40001530A650E94A843EA650E94A4F3EA650A8
:102C5000E84AC636A650E84A733EA1504146E74AC4
:102C6000A150E74A2139A350E64AA65004324B3E10
:102C7000A650E54A1336A650E44AA050E44A38006C
:102C8000A550E44A5735A150E34A1330A150E34A16
:102C9000A1505946E24AA55004325C3DA550E14A94
:102CA0000735A550E04A2E00A150E04A1039A75040
:102CB000DF4A9337A050DF4A1538A750DE4A9E3FBF
:102CC000A750DE4A0437A750DD4A053EA1504146D1
:102CD000DC4AA550DC4A6F35A050DC4A1D38A550AF
:102CE000DB4A643DA550DB4A1D3DA150DA4A203144
:102CF000A650DA4AA550DA4A013DA550D94AF03526
:102D0000A050D94A9130A050D84A2238A150D84A70
:102D10004139A650D74AA550D74A873DA050D74A37
:102D2000A650B4363000D64AA350D64AA550D64A4B
:102D30005D3DA550D54A173DA650D54A753EA650D3
:102D40000432403EA650D34A0600A550D24A083568
:102D5000A550D24A0E35A150D14AAA3EA1504146B3
:102D6000D04AA550D04A0D3DA550D04A0435A550B3
:102D7000CF4A2235A050CF4AA638A150CE4A9B3127
:102D8000A550CE4AA150CE4A0439A650CD4AA650ED
:102D9000CD4A0A3EA150CD4AA650CD4A0C36A0508D
:102DA000CC4A01309146C92292464A465146A1502A
:102DB000C94AA439A650C94AA050C94A9C30A0505B
:102DC000C84A8F38A050C84A3338A550C74A243D56
:102DD000A1506146C64AA550C64A023DA550C64A02
:102DE0005035A050C54A4030A150C54A3531A55094
:102DF000C44A2E3DA550C44A153DA550C34A5D3571
:102E0000A350C34AA550C34A7935A150C24A3A31AA
:102E1000A550C24A8A3DA550C14A413DA550C14A6C
:102E20000F35A350C04AA150C04A7339A550C04ABB
:102E3000123DA050BF4A0800A650BF4A203EA550F0
:102E4000BE4A1E3DA550BE4AA650BE4A4C36A150B1
:102E50006146BD4AA150BD4A0100A550BC4AC231DD
:102E6000A050BC4AA050BC4AA050BC4A0330A0505D
:102E7000BB4AA050BB4A0C30A550BB4AD935A6501E
:102E8000BA4A423EA650BA4A1436A050B94A28005F
:102E9000A550B94AAE3DA6502E00B84AA550B84A32
:102EA000103DA150B74A0339A550B74A1435A55073
:102EB000B64AA150B64ABC39A750B64A1237A750F5
:102EC000B54AB237A7503700B44A9737A650B44A2C
:102ED000063EA650B34A143EA750B34A993FA550A8
:102EE000B24A0535A750B24A2F00A550B14A213D3C
:102EF000A550B14A123DA650B04AA550B04A05357A
:102F0000A150B04AA550B04A4235A150AF4A03394A
:102F1000A150AF4AA150AF4AA150AF4AA550AF4A05
:102F20002A3DA5505CE1C046886F00008C6F000010
:102F3000906F0000946F0000986F00009C6F00007D
:102F4000A06F0000A46F0000C06F0000C46F0000FD
:102F5000C86F0000CC6F0000D06F0000D46F00007D
:102F6000D86F0000DC6F0000E06F000064740000A8
:102F7000687400006C7400007074000074740000C9
:102F8000787400007C740000847400008874000071
:102F90008C74000090740000947400009874000019
:102FA0009C740000A0740000A4740000A8740000C9
:102FB000AC740000B0740000B4740000C074000071
:102FC000C4740000CC740000D0740000D4740000FD
:102FD00024750000287500002C7500005475000051
:102FE000587500005C750000607500006475000095
:102FF000687500006C750000707500007475000045
:10300000787500007C7500008475000088750000EC
:103010008C750000D8750000DC750000E0750000BC
:103020007C7A0000847A0000887A00008C7A0000A4
:10303000907A0000947A0000987A00009C7A000050
:10304000A07A0000A47A0000A87A0000AC7A000000
:10305000B07A0000B47A0000B87A0000BC7A0000B0
:10306000C07A00002C7B0000547B0000587B0000DD
:103070005C7B0000607B0000647B0000687B0000DC
:103080006C7B0000707B0000747B0000787B00008C
:103090007C7B0000887B00008C7B0000648000004B
:1030A000748000007C80000080800000848000002C
:1030B000888000008C8000009080000094800000D8
:1030C000988000009C800000A0800000A480000088
:1030D000A8800000AC800000B0800000B480000038
:1030E000B8800000BC800000C0800000C4800000E8
:1030F000C8800000CC8000003081000038810000D2
:10310000488100004C810000508100005481000083
:10311000588100005C810000608100006481000033
:10312000688100006C8100007081000074810000E3
:10313000788100007C810000808100008C8100008B
:103140009081000094810000988100009C81000023
:10315000A0810000648600006C860000708600007C
:103160007886000080860000888600008C8600003B
:103170009086000094860000988600009C860000DF
:10318000A0860000A4860000A8860000AC8600008F
:10319000B0860000B4860000B8860000BC8600003F
:1031A000C0860000C4860000C8860000CC860000EF
:1031B000D0860000D4860000D8860000E08600009B
:1031C000E4860000188700001C87000020870000AC
:1031D0002C870000388700003C87000040870000F3
:1031E000FD4A083DA550FD4ADD35A550FC4A3D008D
:1031F00091465F2292464A465146A150F94A033908
:10320000A7500700F84A113DA050F84A723FA1505C
:103210006146F74AA550F74A5135A350F64AA750E0
:10322000F64A323FA750F64A183FA550F54A4A3DA4
:10323000A550F54A3800A750F44A1C3FA150F44A63
:103240000439A750F34AA750F34A013FA150F34A6B
:10325000A150F34AA750F34A0437A150F24AA150B3
:10326000F24AA750F24A043FA150F24A0331A75054
:10327000F14A0137A150F14AA750F14AA750F14A4B
:103280006237A150F04AA750F04A3700A650F04AE2
:103290000736A650EF4A0E369146DE2292464A463F
:1032A0005146A150EC4A1837A650EC4A2339A75092
:1032B0000700EB4A0637A150EA4A1131A050EA4A0A
:1032C0000B30A750E94A8F37A750E94A993FA750DA
:1032D000E84A1437A750E84AAB37A750E74AB33F4C
:1032E000A750E74A0E37A050E64A6E30A150E64A92
:1032F000A750E64A0C3FA550E54A093DA050E54AD3
:103300008138A750E44A4C37A550E44A4635A750C7
:10331000E34A563FA750E34A063FA750E24A043F1C
:10332000A550E24A443DA650E14A253EA75004324A
:103330009146612292464A465146A1506146DD4A75
:103340000737A550DC4A1A3DA750DC4A0F3FA05072
:10335000DB4A1538A750DB4A073FA550DA4A133538
:10336000A050DA4AA650DA4A2936A050D94A143079
:10337000A150D94A5431A750D84A4537A750D84A06
:103380001D3FA550D74AA050D74AC030A050D74AB9
:103390008138A050D64AA830A750D64AA050D64A65
:1033A000CB38A150D54A0339A050D54ABE30A050E1
:1033B000D44AC138A150D44A5539A050D34A4430D8
:1033C000A050D34A5238A650D24A293EA050D24AE1
:1033D0001F38A050D14AA150D14AA150D14A03313F
:1033E000A650D14A0436A050D04AA650D04A13362F
:1033F000A150D04AA050D04AA150D04A5F31A0502D
:10340000CF4A1230A150CF4A3E39A050CE4AC730E1
:10341000A650CE4AA050CE4A3800A150CD4A9C3189
:10342000A750CD4A073FA1504146CC4AA550CC4AAF
:103430000735A750CB4A8F37A750CB4A2437A65021
:10344000CA4A133EA550CA4A9D35A550C94A1E35E1
:10345000A150C94AA150C94AC731A750C84AAD3F77
:10346000A750C84A023FA750C74A0A37A550C74AC3
:10347000B43DA750C64A0F37A050C64AA1503B22C0
:1034800091464946C44AA150C44A6F31A050043203
:10349000A3503C22C24B2C38E750C24B3C3FE25079
:1034A000C14B7932E150C14B7039E150C04B2331EF
:1034B000E550C04B0535E750BF4B4037E050BF4BA0
:1034C0002230E650BE4B1336E150BE4B4231E05045
:1034D000BD4B2238E650BD4BE150BD4B6039E55045
:1034E0000C3D2E00BB4BE550BB4B9F35E5503500E6
:1034F000BA4B2935E750BA4B183FE750B94B183F44
:10350000E250B94BB43AE150B84BA231E650B84B57
:10351000223EE550B74B333DE750B74B0137E750FC
:10352000B64B4537E250B64BE250B64BE650B64B81
:10353000E250B64BE250B64BE250B64BE250B64BBF
:10354000E050B64BE250B64BE250B64BE050B64BB3
:10355000E050B64B2B30E750B54B4A3FE750B54BE8
:10356000E75011373A00B44BE150B44B1E39E750E5
:10357000B34B0237E750B34B3E00AB37E750B24B8B
:10358000AC3FE750B14BE050B14B0130E150B14B93
:103590000339E550B04BE050B04BE150B04B093926
:1035A000E5501500AF4B063DE650AF4BE150AF4B39
:1035B0001839E250AE4BE550AE4BA335E550A23D75
:1035C0002A00AD4BE750AD4BE5500433DE35E550F6
:1035D000AB4BCA3DE55055E14487000048870000E9
:1035E0004C87000050870000548700005887000077
:1035F0005C87000060870000648700006887000027
:103600006C870000708700007487000080870000CE
:103610008C87000090870000948700009887000046
:103620009C870000688C00006C8C0000708C00008F
:10363000748C0000788C00007C8C0000808C000072
:10364000848C00008C8C0000948C0000988C00000E
:103650009C8C0000A08C0000A48C0000A88C0000B2
:10366000AC8C0000B08C0000B48C0000B88C000062
:10367000BC8C0000C08C0000C48C0000C88C000012
:10368000CC8C0000D08C0000D48C0000D88C0000C2
:10369000DC8C0000E08C0000E48C0000E88C000072
:1036A000EC8C0000F08C0000F48C0000F88C000022
:1036B000FC8C0000048D0000088D00000C8D0000C3
:1036C000108D0000148D0000188D00001C8D00006E
:1036D000208D0000288D00002C8D0000308D000012
:1036E000348D0000388D00003C8D0000408D0000BE
:1036F000448D0000488D00004C8D0000508D00006E
:10370000548D0000588D00005C8D0000608D00001D
:10371000648D0000688D0000748D000068920000C8
:103720007092000074920000789200007C92000079
:10373000849200008892000090920000989200000D
:10374000A0920000A4920000A8920000AC92000099
:10375000B0920000B4920000B8920000BC92000049
:10376000C0920000C4920000C8920000CC920000F9
:10377000D0920000D4920000D8920000DC920000A9
:10378000E0920000E4920000E8920000EC92000059
:10379000F0920000F4920000F8920000FC92000009
:1037A00004930000089300000C93000010930000A5
:1037B00014930000189300001C9300002093000055
:1037C00024930000289300002C9300003093000005
:1037D00034930000389300003C93000040930000B5
:1037E00044930000489300004C9300005093000065
:1037F00054930000589300005C9300007493000001
:103800007C93000080930000649800007098000092
:103810007898000080980000889800008C9800003C
:10382000949800009C980000A8980000AC980000B4
:10383000B0980000B4980000B8980000BC98000050
:10384000C0980000C4980000C8980000CC98000000
:10385000D0980000D4980000D8980000DC980000B0
:10386000E0980000E4980000E8980000EC98000060
:10387000F0980000F4980000F8980000FC98000010
:1038800004990000E34B083DE050E34B6D30E050FD
:10389000E24B7E38E5501500E14B143DE250E14B20
:1038A000E050E14BE55005352A00E04BE550E04B98
:1038B0002235E150DF4B1539E550DF4B023DE55035
:1038C000DE4B043DE150DE4B8639E550DD4B2235C1
:1038D000E650DD4B0B3EE5501500DC4B013DE6505C
:1038E000DB4B153EE2503200DA4BE550DA4B043D3B
:1038F000E650DA4B043EE550D94B0A3DE550D94B32
:10390000E150D94B0339E150D84BE150D84B290055
:10391000E6501600D74B043EE550D74B4635E250F3
:10392000D64BC531E650D64B0B36E550D54B2F3D27
:10393000E650D54B0436E650D44B7A36E650D44B9D
:10394000643EE550D34B0A35E050D34B0E30E15086
:10395000D24B0731E550D24B0235E650D14B013EF8
:10396000E150D14B0631E05007380200CF4BE55013
:10397000CF4BE150CF4B0F31E050CF4B1130E650E1
:10398000CE4B153EE150CE4BE139E550CD4B053DD8
:10399000E05004336630E0501000CB4B1538E55052
:1039A000CA4B183DE750CA4B123FE650C94BE55091
:1039B000C94BE550C94B1035E250C94B233AE05092
:1039C000C84BE750C84B3137E750C84B2C3FE55048
:1039D000C74B013DE550C74B0B3DE750C64B0B3F76
:1039E000E750C64BE550C64B083DE250C54BE25090
:1039F000C54BE150C54BE150C54BE150C54BE550BF
:103A0000C54BE150C54BE2506246C54BE150C54B3A
:103A1000E150C54B5031E2504A46C44BE550C44BCF
:103A20002935E550C34B203DE550C34B3500E050F0
:103A3000C24B4930E050C24B5538E650C14B0836B6
:103A4000E650C14BE150C14B5039E750C04B0B37EA
:103A5000E750C04BE2506246BF4BE550BF4B0E3DB6
:103A6000E650BF4BE050BF4BE250BF4BE150BF4B65
:103A7000E250BF4B043AE150BE4BE250BE4BE05027
:103A8000BE4BE150BE4BE250BE4BE250BE4BE1504C
:103A9000BE4BE150BE4BE050BE4BE150BE4BE5503B
:103AA000BE4BE250BE4BE250BE4BE250BE4BE2502A
:103AB000BE4BE550BE4BE550BE4B08ADE150BE4B92
:103AC000E150BE4BE050BE4BE250BE4BE25009AC61
:103AD00002F05AFD23002A00BB4807A900F014FA9F
:103AE000002800D0CEE1002000F0CAFA012000F04A
:103AF000C7FA022000F0C4FA032000F0C1FA042043
:103B000000F0BEFA052000F0BBFA062000F0B8FA7B
:103B1000072000F0B5FA082000F0B2FA092000F002
:103B2000AFFA0A2000F0ACFA0B2000F0A9FA0C2042
:103B300000F0A6FAD02301228027402080212026F1
:103B40001B065A62924601325A62914602325A620A
:103B5000904604325A6294467F0008325A62BB464D
:103B60005E62586259625F62FF195F62802280273D
:103B70001201FF005F625A62802252015A6252466D
:103B80009A614A469A6142469A6162469A6108324F
:103B90009A619E61986199615946F132FF3299614B
:103BA0009A61802212019F619A618022FA2052015B
:103BB0009A61002380000893099301F043F9802360
:103BC0009B011D431C43F0233F229B002A6023607E
:103BD00001F0F8F900260123B3400493DB170593A5
:103BE000CAAB98460023D025039343462D06029383
:103BF000764A029B9446BA221900D2016144944647
:103C000004221C009346023A92461E3264449146B6
:103C10009C46DDE0089900000C9900001099000016
:103C200014990000189900001C99000020990000C8
:103C300024990000289900002C9900003099000078
:103C400034990000389900003C9900004099000028
:103C500044990000489900004C99000050990000D8
:103C6000689900006C990000749900008099000028
:103C7000949E0000A49E0000B09E0000B49E000030
:103C8000B89E0000BC9E0000C09E0000C49E0000C4
:103C9000C89E0000CC9E0000D09E0000D49E000074
:103CA000D89E0000DC9E0000E09E0000E49E000024
:103CB000E89E0000EC9E0000F09E0000F49E0000D4
:103CC000F89E0000FC9E0000049F0000089F00007A
:103CD0000C9F0000109F0000149F0000189F000020
:103CE0001C9F0000209F0000249F0000289F0000D0
:103CF0002C9F0000309F0000349F0000389F000080
:103D000088A400008CA4000094A4000098A40000E3
:103D10009CA40000A0A40000A4A40000A8A400008B
:103D2000ACA40000B0A40000B4A40000C0A4000033
:103D3000D0A40000D4A40000D8A40000DCA400009B
:103D4000E0A40000E4A40000E8A40000ECA400004B
:103D5000F0A40000F4A40000F8A40000FCA40000FB
:103D600004A5000008A5000010A500001CA5000087
:103D700038A5000040A5000048A500004CA50000A3
:103D800088AA000090AA000094AA00009CAA000043
:103D9000A4AA0000ACAA0000B8AA0000BCAA0000B7
:103DA000C0AA0000CCAA00000CAB000010AB0000C1
:103DB00018AB00001CAB000024AB00002CAB0000D3
:103DC00030AB00003CAB000048E8010000FDFFFF05
:103DD0004B685A46334188689B0030411340524635
:103DE0004000104003430868012230411040034363
:103DF000206807323041C0001040034360684A46E3
:103E00003041400110400343A068AF6130410001E0
:103E100080460193102043461840019B2A690343C2
:103E20003F20534003400C31EB610C346F618C45F3
:103E3000CED1F022AF61039C2B6992006340134006
:103E4000EB6180231B016B616B61AB6180235B01C4
:103E50009846AB610498059900F0E2FFC022434602
:103E6000D20094466B61029B4034634402938023EA
:103E70000394DB009C4200D0BAE60136082E00D045
:103E8000A9E6A7E6099A0899079800F001F82AE63A
:103E9000F0B583B005000E00140000F00FF9002803
:103EA00001D003B0F0BD154F01223B000121009766
:103EB000053001F04FFB33002A0000940121104827
:103EC00001F036FD21002800714301F0EDFE0400F1
:103ED0000C4B002200930221042001F03BFB230045
:103EE000002201210094052001F034FB3B00022256
:103EF00000210097062001F02DFBD2E7006CDC02C8
:103F000000800240001BB700F0B5DE4657464E4623
:103F10004546E0B5070085B0042003930191029265
:103F200001F000FDFA21890001F0BEFE3223824635
:103F3000FF33994686005644B6014F4B4F4AF3185B
:103F4000072493420ED901235B429C465346E14429
:103F5000F61A4B46002BF0D100205DE0002900D17D
:103F600086E0062421003000614301F09DFE874277
:103F700042D0631E9846012CE5D01D0065433000F9
:103F8000290001F091FE87424DD0A31E9B46022CD2
:103F90004FD02D1B2900300001F086FE87424AD009
:103FA000E31E9B46032C61D02D1B2900300001F03D
:103FB0007BFE874243D0231F9B46042C45D02D1BFC
:103FC0002900300001F070FE874240D0631F9B46FD
:103FD000052C42D02D1B2900300001F065FE8742E0
:103FE0003DD04346052B3FD03000E91F01F05CFE79
:103FF0008742B3D00624B5E70029BAD1A04642468D
:10400000012073019B1B9B009E19019BF6001E6003
:10401000029B1C60039B1A6005B0F0BCBB46B24615
:10402000A946A046F0BD0029E9D0A31E9B46022C5C
:10403000AFD1012496E70029B2D1D846DFE70029A5
:10404000FBD0231F9B46042CB9D103248AE7002907
:10405000F3D0631F9B46052CBCD1042482E70029C2
:10406000EBD04346052BBFD105247BE7022479E73B
:1040700001239846C3E7C046508EF4FF50F80C0069
:104080000123D0228340120693629361094A830080
:104090009446402263441968C0004A40C021114040
:1040A0008022520113431960034B9C460523604450
:1040B0004360704704C0014000400140024B186853
:1040C0008007C00F7047C04600C0064070B5EFF3D0
:1040D000108C72B60D4D2B68002BFCD0BFF35F8F98
:1040E0000724CB08C618C05C01230C40A3401C0069
:1040F0000440034207D103433370BFF35F8F2C604A
:104100008CF3108870BD100001F056FD2C0100D01A
:10411000F8B54746CE46884680B5EFF3108C72B6A8
:10412000214D2C68002CFCD0BFF35F8F9A422CD815
:10413000D4080727055D061901241740BC402C420E
:104140001FD007210127894609E0D408055D06191B
:104150004C4639001440A1400C00294211D00132D4
:104160009342F2D201204042BFF35F8F00220E4BF8
:104170001A608CF3108800280FDBC0BCB946B0462B
:10418000F8BD2C4310003470EEE7BFF35F8F0023BF
:104190002B608CF31088012040424346002BECD06A
:1041A000089801F009FDC0462C0100D00021044B05
:1041B000044ABFF35F8F02C39342FAD17047C046EF
:1041C000000100D0800100D0044A1078431CDBB20B
:1041D000172B00D9102313707047C046281D0020EC
:1041E00000B5054B83B00100009318221F2303483C
:1041F000FFF78EFF03B000BD288A0010D02A0020F0
:1042000001238340002904D0034A1360034A13604A
:104210007047034A1360FBE780E200E000E100E042
:1042200080E100E001238340014A13607047C046EB
:1042300000E200E0084B10309B688000C358002B60
:1042400007D0064A00209B1A2F229A424041C0B252
:1042500070470020FCE7C04600ED00E02C1D002068
:10426000024B10309B688000C058704700ED00E0A2
:1042700070B50D00EFF3108672B60F4A1368002B6D
:10428000FCD0BFF35F8F0D4B10309B6884001B592F
:104290000B4A934203D09D4201D001F0A5FC074B8D
:1042A0009B681D51BFF35F8FBFF35F8F0022024BEE
:1042B0001A6086F3108870BD240100D000ED00E084
:1042C000CD010010F0B557464E46DE464546E0B5F6
:1042D00085B0060002911700EFF3108B72B6674AA3
:1042E0001368002BFCD0BFF35F8F0025644B5D5734
:1042F0009A46002D00DAA4E06B00624C03935B1930
:104300009B009846A146C1444B4652469B791036C5
:1043100013705D4BB2009B68019299580B1B2F2BB9
:1043200034D95A4B994200D0A4E0039B584A9C468A
:10433000584B6544AD006353434602336519E41896
:10434000554B0121043B1B1B1B055B0D13436B806D
:10435000524BEF71AB80FF23AB71029BAB604B46BE
:104360000B431900484B019A9B689950BFF35F8F2C
:10437000BFF35F8F0022414B1A608BF3108805B0AA
:10438000F0BCBB46B246A946A046F0BD01200A00DB
:104390008243D379BB422FD845464E46130040494D
:1043A0001B1B5B415943090D3A4B63533A4B023592
:1043B0006519043B5B1B1B05354D5B0D2B4373805F
:1043C0000426B446E0444444131F1B1B4C46A17111
:1043D00002991B05A16049465B0D2B43A380314B1D
:1043E000E77101431360BDE75800C0188000201832
:1043F000C679BE422BD902000623D356002BF3DA2E
:10440000101D82462848804604267642B446E14480
:1044100050464E46361A3005400D824656461C48D8
:10442000957106439680039A944665441D4AAD00F3
:10443000641922604246A371029BA280E771A360C7
:1044400090E701F0D1FB002553465D5754E7101D5E
:10445000824690884005001584464046D44466460E
:1044600004302018301AE0260005400D3602304393
:104470008046C9E701F0B8FB57E7C046240100D0E9
:10448000D52F00202C1D002000ED00E0CD010010F4
:1044900000E0FFFF00A1FFFF5C1D002001BDFFFF4A
:1044A000AAAA00000148804701BD0000F0B5DE4621
:1044B00057464E464546E0B50C0083B0EFF31089F1
:1044C00072B6584A1368002BFCD0BFF35F8F564B6F
:1044D0009A68030010339F00D559544A904695427C
:1044E00032D0A54243D0524EAA1B2F2A2CD80122EB
:1044F0008240924651464F4A1268114001915146FE
:104500004D4A1160BFF35F8FEFF305829346002A97
:1045100033D101232A009A4393689C4208D177E063
:104520004B005B189B00F3189968A1422AD01A002F
:10453000062151560029F3DA019B002B19D052466F
:104540003E4B1A603B4B1A60374B9B68DD51BFF303
:104550005F8FBFF35F8F0022324B1A6089F31088A0
:1045600003B0F0BCBB46B246A946A046F0BD15005C
:10457000EAE75246304B1A60E6E79342C9D001F0B1
:1045800033FBC6E706215956002921DB4A005018A3
:10459000800034188046A0689860E079D8710620C1
:1045A00020569871002824DBA488F01A640524158D
:1045B00044440019E0240005400D24022043988063
:1045C00052181F4B9200B6181A781970B271B3E7DF
:1045D000594600290FD1FF3191711A49918018492C
:1045E0000A789A71184A9B1B5B415A43120D0A7054
:1045F000A2E71648E3E7164A1649D21A083A5002CB
:10460000400D01439980144952080A43DA8093E728
:104610000621515613000029B8DA5A46002AEAD179
:104620004546DCE7240100D000ED00E0CD0100109C
:104630002C1D002000E100E080E100E080E200E0CD
:10464000D52F002001BDFFFFAAAA000001BD000078
:10465000661D002000F0FFFF00F8FFFF70B5EFF3CC
:10466000058101240443EFF3108C72B6214A1368CC
:10467000002BFCD0BFF35F8F1F4B05001F4AED1AC4
:104680006D416A43120D1E4D8900AE6852B27658D4
:10469000A6421CD00621595691421CD012215956CF
:1046A000914222D01E215956914220D02A2159569A
:1046B0000324914210D0134B19781A708171BFF303
:1046C0005F8F00220B4B1A608CF3108870BDAB68B3
:1046D0000D4C5C50EFE700246100091989005B185C
:1046E000FF21997109499980E5E70124F4E7022443
:1046F000F2E7C046240100D02C1D0020AAAA000029
:1047000000ED00E0D52F0020CD01001001BDFFFF1E
:10471000054B064A1360064A136053609360D360EA
:1047200013615361936170478080808000E400E0F2
:1047300004E400E000B5074B83B0010000930022C1
:1047400005230548FFF7E4FC002801DB1F23181AA6
:1047500003B000BD448A0010DA2F0020024B9C46B3
:1047600061448900016070474000003410B50400C6
:10477000FFF72AFD01002000FFF7F0FFFF23237160
:10478000BFF35F8F10BDC04610B50400FFF71CFDDE
:1047900001002000FFF7E2FFFF23A380BFF35F8F3C
:1047A00010BDC04610B504000120FFF719FD044BF1
:1047B0009C46604480002060BFF35F8F10BDC04600
:1047C00040000034034B9C46614489000160BFF304
:1047D0005F8F70474000003483680B4810B58446F3
:1047E00061446244090112019A18591854684B68CF
:1047F00001209C4201D802D00020C0B210BD126836
:104800000B689A42F9D8F7E7FFFFFF0F0A4B1968C8
:10481000EFF3108072B60A68002AFCD0BFF35F8FF6
:104820001B68BFF35F8F00221A6080F3108840BFBF
:10483000002000217047C046A42F0020F8B557463D
:104840004E464546DE46E0B599460CAB1C780DABAE
:104850001B78060090469A460768002C11D1BC7B55
:10486000002C42D065003B682D19033D59194B7847
:10487000BB73002B00D1FB7300238B704B700B704C
:1048800004E065003B682D19033D5919B2682A4BB5
:1048900094464246E3181B0163441A604A465A6034
:1048A0000A9A9A600B9ADA6000238B704B700B7037
:1048B0007B7B9B46002B2BD022005946B8687B6837
:1048C00098473A68002816D05B4658465B005B4420
:1048D0005519033BA870D118D35C002B00D06B7026
:1048E0005B460C707B73A34513D0F0BCBB46B2464D
:1048F000A946A046F8BD5B465B005B44033BD3186A
:104900009C705119525D002A00D05A705B460B70A2
:104910007C7342464B46307D00F0B4FB051E06D04A
:104920005346002B03D12100306800F0D5FD0E9BCB
:10493000002BDAD01D70D8E7FFFFFF0FF0B5DE4681
:1049400057464E4645460023E0B58BB00893664B6C
:104950008200D45800239B46099000F033FB626824
:1049600006000F00EFF3108572B61368002BFCD021
:10497000BFF35F8F23689C465B7B9946002B68D012
:10498000A2685A4B90464B441B01984443461A6810
:104990005B6810001900801BB941002963DD09988C
:1049A00000F070FB00230022984600230692079334
:1049B00000239A466368BFF35F8F5A461A6085F3F7
:1049C00010885346002B08D10028C6D10BB0F0BC8C
:1049D000BB46B246A946A046F0BD089B4146180218
:1049E0004B461843D047626806000F00EFF310856E
:1049F00072B61368002BFCD0BFF35F8F002F4FDB24
:104A000033003B4302D02369002B60D12368D97B5C
:104A1000002907D04A00521819688C46494662445A
:104A2000033A51709A7B002A01D14A469A734A464A
:104A3000DA734B46E168013BCA5C0132CA545B46FB
:104A400023616368BFF35F8F5A461A6085F310884D
:104A500083E7002300229846002306920793002351
:104A600000209A46A6E7002901D1002897D100210D
:104A7000604600F0AFFC43461A685B6806920793F5
:104A800043469B689A464346DB689846E3684B4436
:104A9000013B1B7808931B0203432361002089E735
:104AA0002369002BB2D0069A079B921BBB41002BB7
:104AB00015DB594604910121039149460291414673
:104AC0000191514620000091FFF7B8FEB7E700F0D2
:104AD00079FA32003B0012184B41002BE9DA01222F
:104AE000034B5242E5E7C046882F0020FFFFFF0F2F
:104AF000FFFFFF7F10B5144C6368002B04D00A2120
:104B00001248FFF72BFE10BD2300114A1021206828
:104B100000F07AFB032000F049FA032000F022FBAA
:104B200003200C4900F068FAFFF74EFB0A4B9C4645
:104B300003232375D0231B061B6860446375074B52
:104B400080006060DC60DAE7741D0020A42F002084
:104B5000D94700103D49001040000034882F002044
:104B600000487047741D0020F0B557464E46454634
:104B7000DE46E0B585B0019310AB1B7806000393C9
:104B800000239A46984600927268EFF3108972B635
:104B90001368002BFCD0BFF35F8F3568AC7B002C13
:104BA00049D067002B683F19033FDB195A78AA7375
:104BB000002A00D1EA73B168484A8C4600980199EE
:104BC000A21812016244106051600E9991600F9911
:104BD000D16042469A705A701A706B7B9B46002BCC
:104BE00045D022001900A8686B6898472A680028F9
:104BF00030D05B4658465B005B44D719033BB87026
:104C0000D118D35C002B00D07B705B460C706B73AB
:104C10005C452DD0F3681B19013B18787368BFF30E
:104C20005F8F42461A6089F310885346002B2CD1BF
:104C30000002204307E07368BFF35F8F1C6089F3B5
:104C400010880120404205B0F0BCBB46B246A946E0
:104C5000A046F0BD5B465B005B44033BD3189C70F1
:104C6000D119D25D002A00D05A705B460B706C736C
:104C7000307D009A019B00F005FA82460028C9D0D9
:104C80002100306800F028FCC4E7039B002B23D0F0
:104C90000E9B00200F999847030004000D000B4362
:104CA0001AD000290ADA009A019B121BAB4100922C
:104CB0000193002B0ADB039B9A4665E700F082F91B
:104CC00024184D4100940195002DF4DA0123044C81
:104CD0005B4200930194EEE70020B4E7FFFFFF0F73
:104CE000FFFFFF7F70B542680400EFF3108572B6D6
:104CF0001368002BFCD0BFF35F8F2068CEB2437BDC
:104D0000B3420AD0FF230B405A00D31802689446DE
:104D10006344033B9B78002B13D0E268FF23944647
:104D20000B406344013B0A0A1978D2B291420ED07B
:104D300000206368BFF35F8F00221A6085F310883C
:104D400070BD22698A42F3D100202361F1E731006E
:104D500000F0C2FBEDE7C046407D7047F0B50400AF
:104D60000D0006267642F717C64636196F4100B584
:104D700084B08F4214D811D000F024F932003B00E7
:104D8000121A8B41002B15DC002B3ED0200029008D
:104D900000F022F904B080BCB846F0BD8642EBD9E1
:104DA0000026002700F00EF932003B00121A8B415A
:104DB000002BE9DD002302930193154B3200009391
:104DC00014483B00FFF7D0FE0028DFDB00239846A5
:104DD000BC46114A114F7B6A9C4504D8B96A8E4281
:104DE000D4D99C45D2D11168EFF3108072B60B680C
:104DF000002BFCD0BFF35F8F1368BFF35F8F41467A
:104E0000196080F3108820BFE5E7002ABED0D1E703
:104E10000D480010741D0020A42F00200040054004
:104E200070B504000D0000F0CDF8001969410029AB
:104E300002DBFFF793FF70BD012001494042F8E714
:104E4000FFFFFF7F70B5060000F0BCF8FA220400F7
:104E50000D00002330000021920001F0BDF900197F
:104E60006941002902DBFFF779FF70BD012001498C
:104E70004042F8E7FFFFFF7F70B5EFF305830500C1
:104E80000C0084B0002B0AD0164A0020536A9C42C2
:104E900003D8926A0130AA421FD304B070BD124EEB
:104EA00002930193114B0200009330000B00FFF7B7
:104EB0005BFE011EE8DD20BF3000FFF713FF094B4A
:104EC0000020596A8C42E8D89B6A0130AB42E4D298
:104ED000641A631E9C41E0B2DFE7E41A631E9C4142
:104EE000E0B2DAE700400540741D00200D480010D4
:104EF000F0B5EFF30582D6464F4646461000C0B5E2
:104F00001038EFF3108872B6214C2368002BFCD0C8
:104F1000BFF35F8F0123190081401E4D1F0069639D
:104F2000AA461D4D29601D4D2E78AC463500C54062
:104F30002F402B4209D1BFF35F8F276088F3108881
:104F4000E0BCBA46B146A846F0BD5346144D5F6A70
:104F500083005D59AF420ED3124A8E439B5862467E
:104F60001670BFF35F8F0022226088F31088002B39
:104F7000E6D09847E4E70C4B92009C4662441368E5
:104F80001360BFF35F8F0023236088F31088D7E797
:104F9000280100D0004005403C700540D92F00207A
:104FA000B02F0020B8290020D03F054010B50100E7
:104FB000024A0348FFF78AF810BDC046608A001015
:104FC000D42F0020034B596A0A00986A596A8A4212
:104FD000FAD1704700400540064A536A9942FCD80E
:104FE00007D1044B02E05A6A914202D19A6A824286
:104FF000F9D370470040054070B504000D00EFF391
:10500000108672B61A4A1368002BFCD0BFF35F8F6C
:10501000002D1BD02000FFF723F9164981420AD04A
:105020002000FFF725F901212000FFF7E9F801230F
:10503000A340114A1360114BA400E550BFF35F8FEA
:1050400000220B4B1A6086F3108870BD0B4BA20038
:10505000D5500122A2400A4920000B7893430B70DF
:105060000449FFF723FA00212000FFF7C9F8E5E71C
:10507000280100D0F14E001038600540B82900200A
:10508000D92F0020F0B54F46D6464646C0B507009A
:105090002F4C616A0D00A66A616AA942FAD18B425F
:1050A00008D805D00120E0BCBA46B146A846F0BDFC
:1050B000B242F7D9EFF3108A72B626480168002988
:1050C000FCD0BFF35F8F0125BD402349204C8846AB
:1050D000097889462943C9B28C4641466046087022
:1050E000391D1E48890065630A51B9000B50216AB9
:1050F0000020294219D0616A0800A66A616A8142CB
:10510000FAD18B4219D801D1B24216D8CC451DD064
:105110000F4B1F201D625D6301230740BB40104AF7
:105120001E38136043464A461A70BFF35F8F002251
:10513000084B1A608AF31088B5E70020BFF35F8F31
:105140000022044B1A608AF31088ACE70120ECE7D8
:1051500000400540280100D0D92F0020B02F0020AA
:1051600080E200E0EFF3108C72B60A490B68002B66
:10517000FCD0BFF35F8F01238340074A07481362C7
:1051800002789A430270BFF35F8F00230B608CF3A9
:1051900010887047280100D000400540D92F00201A
:1051A00070B5050014001600002915D00C00002A67
:1051B00012D080686B689847296800280ED0730069
:1051C0009B196200033B1219CB18033A9C70881894
:1051D0008A5C002A15D10670200070BD63001B197F
:1051E0007200033B9219CB18033A9E7088188A5CB0
:1051F000002A02D104703400EEE75A7004703400C3
:10520000EAE75A700670E7E730B583600023CCB256
:1052100043730133047342608373C4730D000068E9
:10522000012C06D9421C0133DBB2137003329C42BD
:10523000F9D1FF2129404B005918002340180338A9
:10524000437030BDF8B5CE46474606000C0080B529
:10525000002907D04D0003686D18033D5A1957788F
:10526000002F04D12000C0BCB946B046F8BD79007B
:10527000C919033988464344597889460021597031
:10528000517073683A00210080689847336800289D
:1052900014D042469A18947059195B5D002B00D0C7
:1052A00053700F70270049463000FFF7CBFF3900DD
:1052B00002003000FFF774FF0400D3E74246414686
:1052C0005D19AF709A185B5C002B00D06B70147086
:1052D000E9E7C046F0B557464546DE464E46E0B5DE
:1052E0000D006B0001685B19DF1E0400C85D83B010
:1052F0000192CA19002850D043001B18033BCB1859
:105300005E78B446002E1AD1019E002E42D0E67B74
:10531000002E04D073009B19CB18033B5D70A37B58
:10532000002B00D1A573E57300282FD10023537003
:1053300003B0F0BCBB46B246A946A046F0BD720021
:105340006244033A89184A78904600224A7091468E
:105350005A70010032002000FFF722FF43468246C8
:10536000002B07D05B0021684344033BCB185A78DD
:10537000002A16D1424651462000FFF711FF21684E
:10538000019BCA19002BC2D10028CFD043001B18A3
:10539000033BCB1800219970C8E7019B002BB6D1C5
:1053A000C4E75000801803380918487883464846F7
:1053B0004870587041462000FFF7F2FE594680467B
:1053C0002000FFF73FFF414602002000FFF7E8FE04
:1053D0008046CFE7F0B557464546DE464E46E0B537
:1053E00083B00191457B04006B0000685B19DF1EF0
:1053F000C15DC219002952D04B005B18033BC31892
:105400005E78B446002E1CD1019E002E44D0E67B6F
:10541000002E04D073009B19C318033B5D70A37B5F
:10542000002B00D1A573E573002931D1002328009A
:105430005370617303B0F0BCBB46B246A946A046A8
:10544000F0BD72006244033A801842789046002210
:10545000427091465A7020003200FFF7A1FE434689
:105460008246002B07D05B0021684344033BCB18E6
:105470005A78002A17D1424651462000FFF790FE85
:10548000019B01002068C219002BC0D10029CDD09A
:105490004B005B18033BC31800209870C6E7019BC4
:1054A000002BB4D1C2E7500080180338091848789F
:1054B000834648464870587041462000FFF770FE0A
:1054C000594680462000FFF7BDFE414602002000FD
:1054D000FFF766FE8046CEE770B5040000292CD0A9
:1054E000437B8B422ED005684800401803382818AB
:1054F0008278002A21D053009B18033BEA5CEE1807
:105500008A4202D11BE0002A08D053009B18033BBB
:10551000EB185A788A42F6D142785A700023012259
:10552000837043702000FFF7D5FE617B02002000EE
:10553000FFF736FE6073012000E0002070BD437865
:105540003370EBE701221900FFF7C4FE60730120FE
:10555000F4E7C046F0B54546DE4657464E46E0B550
:1055600083B001920C9A050088469A4200D974E0F3
:105570001A0E93461E023000002359460C9A00F082
:10558000D1FB374B6C009C466419A40064446368EB
:105590000700834200D260602B1FDBB29946012BCB
:1055A00035D9C02380229B01234312011A602D4B61
:1055B000AD0059599A46002905D0586900F074FB8E
:1055C00001300138FDD1019A236852015340E02295
:1055D0001A4080235B0123431A604A46012A2FD9CF
:1055E000802380229B01234312011A603000002394
:1055F0003A005946676000F095FB53465851012028
:1056000003B0F0BCBB46B246A946A046F0BD434637
:10561000012BC6D1C02303229B0123431A60023A07
:10562000A3681A42FCD0019A236852015A40E02331
:105630001A4080235B0123431A600A4AAD00924658
:1056400042462168514003220A401A600122434623
:105650009A40A3681A42FCD0C2E70020D0E7C046B7
:1056600000800040D42A002030B50C2083B000F028
:10567000B7F9FEF723FD00280ED0944B944A1A6028
:105680005A609A60DA601A615A619A61DA611A6244
:10569000904A5A6203B030BD8F4CA06700F0F4F915
:1056A00001228E4B1A60636C012BFCD103228C4BC0
:1056B0001A60894A936B012BFCD101330121894A7D
:1056C00089480093043300F033F90523874A009397
:1056D0000121874800F02CF9864B5A68FF2A02D82E
:1056E000802252005A608022784C7D4B2169120141
:1056F000804D1A60002905D0606900F0D5FA0130AC
:105700000138FDD1E0217B4B02201A681140802234
:1057100052012A4311601968484003210140116079
:1057200004219A681142FCD08022802192012A43F0
:1057300009011160802252005A606F4B23616F4B48
:105740005968FF2900D85A600321644A6B4B1160E5
:1057500002399A681142FCD0E0201A681040802279
:1057600052011A431060186848400321014002208A
:10577000116062498A681042FCD080229201134372
:10578000802212011A6080225D4B52004A606361E0
:105790005C4B5968FF2900D85A6080225A4BE16956
:1057A0001201584D1A60002905D0606900F07CFA9A
:1057B00001300138FDD1E02252490B681A408023A4
:1057C0005B012B431A60802380229B012B43120133
:1057D0001A6080223E4B52004A60E3614B4B59688D
:1057E000FF2900D85A608022494B216A1201474D97
:1057F0001A60002905D0606900F056FA01300138BE
:10580000FDD1E02241490B681A4080235B012B4304
:105810001A60802380229B012B4312011A6080238F
:1058200080225B004B602A4BD2022362394B5968BD
:10583000914200D25A608022374B616A1201354D85
:105840001A60002905D0606900F02EFA0130013895
:10585000FDD1E0222F490B681A4080235B012B43C6
:105860001A60802380229B012B4312011A6080233F
:10587000DB024B60174B6362284B5A68FF2A02D841
:10588000802252005A608022254BA1691201234DCB
:105890001A60002905D0606900F006FA013001386D
:1058A000FDD1E0221D490B681A4080235B012B4388
:1058B0001A60802380229B012B4312011A608023EF
:1058C0005B004B600E4BA361E4E6C046D42A002087
:1058D000006CDC021BB70000008000403CB00040C0
:1058E00030B00040002F685900800240008C86478D
:1058F00000C0024030800040001BB7003C800040E8
:10590000405973075480004054B00040608000400C
:1059100060B000406C8000406CB0004048800040A7
:1059200048B00040014B8000C0587047D42A002086
:10593000F0B5C646040000B50C2090461F000E00CE
:1059400000F0B2F94101091A8D01691AC90009185C
:105950008901404600F0A8F9069B3F041A0323681A
:105960001743002B22DB1A4B1A4DE21853425A41BF
:1059700080235B019C461203174B62441A60174B4D
:105980001A601100AB689943FBD1C022231D92011C
:105990001A4321232660A06013602368002BFCDAE1
:1059A0000823E760136080BCB846F0BD3F2322683F
:1059B0001340B342D7D1A3681B051B0D8342D2D13C
:1059C000EE22E368D2021340BB42CCD1EBE7C046E3
:1059D0000040FDBF00C0004000E0004000F000407B
:1059E0008023024A9B000343D36270470080054036
:1059F00010B5140080221B4BD2051A6000281AD063
:105A00000123194A1843194BDA61194A42401A62B4
:105A1000596298628022134BD2051A601549164AC2
:105A20001160E022D2041A60002C07D18022134BAF
:105A300012061A6010BD0D4BD861EBE763011B1B0A
:105A40009A008023121912015B049A4200D30C4A77
:105A50000C4B1A60054B5A608022084BD2051A6025
:105A6000E8E7C04600B00540D3C007B0008005405D
:105A70002D3FF84FFCFF01000820014000A0054029
:105A8000FFFFFF00782F0020AA23064A1B011360A6
:105A90002F230549D360054B19605368002BFCDAAE
:105AA0007047C0460040024000B0FA00006002406B
:105AB0002C4B2D4A70B51A602C4A2D4B2D491A607B
:105AC00014008B689C43FBD12B4D2C4EB54208D261
:105AD000013E761BB60808CD984723000134B34237
